:030000000204EB0C
:0C04EB00787FE4F6D8FD75812D02053203
:1005BB00022A0000020800000A0A3F065B4F666D24
:1005CB007D077F6F0614FEFDFBF7EFDF061A0203B4
:0405DB000509050009
:1005FA00D3EF9400EE94004007EF1F70F31E80F0D3
:01060A0022CD
:100577007524007525FFE5A0F460367F327E0012F2
:1005870005FAE5A0F4602AAFA07524008F25C3E51E
:10059700239414E522648094805016E5A0F460113A
:1005A7000523E523700205227FF47E011205FA80F8
:0405B700DDAF25226D
:10000E00EF2405601C24FE602F1470030201A82447
:10001E000760030202836309FF6308FF752C0080EB
:10002E0013052DE52D7002052C6407452C60030287
:10003E000283F52C752D0122752800752901852C5A
:10004E0020852D21D3E5219401E520648094804004
:10005E0015E52925E0F529E52833F528E5211521B3
:10006E0070E2152080DEE5286003020283E5292474
:10007E00FE605B24FE700302011A24FC7003020171
:10008E003724F8700302016124F0700302017E240C
:10009E001F6003020283E51A600AB4010AE51BC35E
:1000AE0094045003051A22E51AB4010EE51BC394FD
:1000BE00044007751A02751B0322E51A64026003D9
:1000CE00020283E51D640360030202838039E51A90
:1000DE006003B40116E51BC394095003051B22E50A
:1000EE001B64096003020283F51B22E51A64026099
:1000FE0003020283E51BC394035003051B22E51B79
:10010E0064036003020283F51BF51A22E51CC394F7
:10011E0000400AE51CD394045003051C22E51C6420
:10012E00056003020283F51C22E51DC394095003EA
:10013E00051D22E51DB40904E4F51D22E51D640923
:10014E006003020283E51C64056003020283F51C52
:10015E00F51D22E51EC39400400AE51ED3940450FB
:10016E0003051E22E51E64056003020283F51E22AE
:10017E00E51FC394095003051F22E51FB40904E4CB
:10018E00F51F22E51F64096003020283E51E640564
:10019E006003020283F51EF51F22752800752901E2
:1001AE00852C20852D21D3E5219401E520648094B2
:1001BE00804015E52925E0F529E52833F528E521C8
:1001CE00152170E2152080DEE5286003020283E52A
:1001DE002924FE603324FE604524FC605724F86019
:1001EE006924F0607B241F6003020283E51A700409
:1001FE00751A0222E51AC39403507A741A94007485
:10020E000094004070151A22E51BD394095007E59F
:10021E001B6003151B22E51B705B751B0922E51C79
:10022E00D394055007E51C6003151C22E51C704590
:10023E00751C0522E51DD394095007E51D600315B5
:10024E001D22E51D702F751D0922E51ED394055044
:10025E0007E51E6003151E22E51E7019751E052288
:10026E00E51FD394095007E51F6003151F22E51FF4
:06027E007003751F092248
:1003CD00758901758C0B758ADC75A8FFD28CD28866
:1003DD00E50945086002C28CE50945087002D28C1A
:1003ED00752600752701752000752101AF21741345
:1003FD002FF8E6F590E521640245206008E52164BB
:10040D00044520700F74192FF8E6240AF8E644808D
:10041D00F580800C74192521F8E6240AF8E6F5809C
:10042D007F327E001205FA0521E52170020520C3F9
:10043D009407E5206480948040B20527E52770027B
:10044D000526C3940BE526648094804099E5094503
:10045D000870030203DD752600752701C3E5279497
:10046D000BE5266480948040030203DD7520007542
:10047D002101E521B52D0EE520B52C097590FF7FE5
:10048D00327E008038AF2174132FF8E6F590E52108
:10049D00640245206008E52164044520700F74193D
:1004AD002FF8E6240AF8E64480F580800C741925AF
:1004BD0021F8E6240AF8E6F5807FF47E011205FAAC
:1004CD000521E52170020520C39407E52064809481
:0E04DD0080409F0527E52770830526020469ED
:030003000205E013
:1005E000C0E0C0D075D000C006C007120577120069
:0A05F0000ED007D006D0D0D0E032C4
:03000B000202846A
:10028400C0E0C0D0C28C758C0B758ADCD28C052B77
:10029400E52B7002052AC39410E52A6480948050EB
:1002A400030203C8752A00752B00E51F9409500545
:1002B400051F0203C8E51EC39405500DE51FB409CC
:1002C40008051E751F000203C8E51DC394095015D7
:1002D400E51EB40510E51FB4090B051D751F007557
:1002E4001E000203C8E51CC39405501DE51DB40996
:1002F40018E51EB40513E51FB4090E051C751F008F
:10030400751E00751D000203C8E51AC39402501D32
:10031400E51BC394095016E51CB40511E51DB40989
:100324000CE51EB40507E51FB409028055E51AC3A0
:100334009402502DE51B64097027E51CB40522E5E1
:100344001DB4091DE51EB40518E51FB40913051AEB
:10035400751F00751E00751D00751C00751B00803F
:1003640063E51A6402702BE51BC394035024E51C57
:10037400B4051FE51DB4091AE51EB40515E51FB43F
:100384000910051B751F00751E00751D00751C00E6
:100394008032E51A6402702CE51B64037026E51CA8
:1003A400B40521E51DB4091CE51EB40517E51FB409
:1003B4000912751F00751E00751D00751C00751B44
:0903C40000751A00D0D0D0E0321F
:1004F7000203CDE493A3F8E493A34003F68001F24B
:1005070008DFF48029E493A3F85407240CC8C33305
:10051700C4540F4420C8834004F456800146F6DFD4
:10052700E4800B01020408102040809005BBE47EA4
:10053700019360BCA3FF543F30E509541FFEE493C9
:10054700A360010ECF54C025E060A840B8E493A390
:10055700FAE493A3F8E493A3C8C582C8CAC583CABB
:10056700F0A3C8C582C8CAC583CADFE9DEE780BE73
:0105DF00001B
:00000001FF
