:03000000020006F5
:0C000600787FE4F6D8FD75810D02004DF6
:0701460002080000010AFE9F
:04012F007F327E009D
:10013300D3EF9400EE648094804007EF1F70F11EAC
:0301430080EE2229
:10009200750DFFE5A0F4602E7F0A7E00120133E5A4
:1000A200A0F4602285A00DC3E50C9464E50B648086
:1000B20094805012E5A0F4600D050CE50C70020569
:0B00C2000B12012F80E1AF0D7E002229
:1000CD00EF2403601414601824037022E50A647F82
:1000DD00601CE50AF425E080126309FF6308FF2226
:0F00ED00E50A64FE6008E50AF4C313F4F50A227D
:10011600D28875A881850A8012012FE509450860F5
:09012600F47580FF12012F80EC3A
:030003000200FCFC
:1000FC00C0E0C0D075D000C006C00712009212003C
:0A010C00CDD007D006D0D0D0E032ED
:10001200020116E493A3F8E493A34003F68001F2ED
:1000220008DFF48029E493A3F85407240CC8C333EF
:10003200C4540F4420C8834004F456800146F6DFBE
:10004200E4800B0102040810204080900146E47E07
:10005200019360BCA3FF543F30E509541FFEE493B3
:10006200A360010ECF54C025E060A840B8E493A37A
:10007200FAE493A3F8E493A3C8C582C8CAC583CAA5
:10008200F0A3C8C582C8CAC583CADFE9DEE780BE5D
:01014D0000B1
:00000001FF
