:03000000020003F8
:0C000300787FE4F6D8FD75811902004AF0
:1000E7000A08065B4F666D7D077F6F3F06120304A4
:0400F70005090407EC
:10008F00751800751901E4FDFCFBFAE519F4F590FC
:10009F00E51925E0F519E51833F518EB64014A6009
:1000AF0006EB64034A700B74082BF8E64480F58066
:1000BF00800774082BF8E6F5800DBD00010C7F64F6
:1000CF007E00EF1F70011EEF4E70F70BBB00010A91
:0800DF00EB64064A70B580A82D
:10000F0002008FE493A3F8E493A34003F68001F278
:10001F0008DFF48029E493A3F85407240CC8C333F2
:10002F00C4540F4420C8834004F456800146F6DFC1
:10003F00E4800B01020408102040809000E7E47E6A
:10004F00019360BCA3FF543F30E509541FFEE493B6
:10005F00A360010ECF54C025E060A840B8E493A37D
:10006F00FAE493A3F8E493A3C8C582C8CAC583CAA8
:10007F00F0A3C8C582C8CAC583CADFE9DEE780BE60
:0100FB000004
:00000001FF
