:0300000002007B80
:0C007B00787FE4F6D8FD758108020026AD
:100003007D647C00D3EF9400EE648094804007EF1E
:0F0013001F70F11E80EEED1D70011CED4C70E5AD
:0100220022BB
:10006100758920758DFD758BFDD28ED2AFD2ACD244
:0A0071009CC298C299C29FD29E2241
:100026001200612090FD2094FA7F017E00120003E9
:0E0036002094F03094FD7599FF7508FF80E569
:0300230002004494
:07004400C0D075D000C00719
:10004B00AF9930980CC299309007BFFF02B293C2A0
:01005B00980C
:05005C00D007D0D032F6
:00000001FF
