:0300000002010EEC
:0C010E00787FE4F6D8FD7581070200033D
:10000300AFA0EF2441604724E0606024F0607924CE
:10001300F870030200A524FC70030200BF24FE70E5
:10002300030200D91470030200F2247F600302016B
:100033000A7C037DE8ED1D70011CED4C70F7E5A013
:10004300F46280E5A0647F600302010A80F57C030B
:100053007DE8ED1D70011CED4C70F7E5A0F46280A6
:10006300E5A064BF600302010A80F57C037DE8ED2F
:100073001D70011CED4C70F7E5A0F46280E5A064EF
:10008300DF600302010A80F57C037DE8ED1D70014A
:100093001CED4C70F7E5A0F46280E5A064EF706797
:1000A30080F87C037DE8ED1D70011CED4C70F7E5D5
:1000B300A0F46280E5A064F7704D80F87C037DE8CE
:1000C300ED1D70011CED4C70F7E5A0F46280E5A016
:1000D30064FB703380F87C037DE8ED1D70011CED3B
:1000E3004C70F7E5A0F46280E5A0B4FD1A80F97CBA
:1000F300037DE8ED1D70011CED4C70F7E5A0F46283
:0A01030080E5A064FE60FAE4FEFF50
:01010D0022CF
:00000001FF
