:0300000002001EDD
:0C001E00787FE4F6D8FD758109020065CA
:0400150002080000DD
:10000300758910758D0B758BDC75A888D28EC280AF
:0200130080FE6D
:03001B000200AA36
:1000AA00C0E0C0D0C28E758D0B758BDCD28E05096F
:1000BA00E50970020508C39410E50864809480403D
:0E00CA0008750800750900B280D0D0D0E03271
:10002A00020003E493A3F8E493A34003F68001F2E9
:10003A0008DFF48029E493A3F85407240CC8C333D7
:10004A00C4540F4420C8834004F456800146F6DFA6
:10005A00E4800B0102040810204080900015E47E21
:10006A00019360BCA3FF543F30E509541FFEE4939B
:10007A00A360010ECF54C025E060A840B8E493A362
:10008A00FAE493A3F8E493A3C8C582C8CAC583CA8D
:10009A00F0A3C8C582C8CAC583CADFE9DEE780BE45
:0100190000E6
:00000001FF
