:03000000020003F8
:0C000300787FE4F6D8FD75812202004AE7
:1000BC000A083F065B4F666D7D077F6F081A00FECE
:1000CC0000FD00FB00F7081200050008000300000B
:0D00DD00EFD3940040077EE8DEFE1F80F3A5
:0100EA0022F3
:10008F00E4F522E52225E0241AF808E6F5A0E5229A
:10009F0025E02412F808E62408F8E6F5907F01120F
:0D00AF0000DD0522E522C3940440D880D373
:10000F0002008FE493A3F8E493A34003F68001F278
:10001F0008DFF48029E493A3F85407240CC8C333F2
:10002F00C4540F4420C8834004F456800146F6DFC1
:10003F00E4800B01020408102040809000BCE47E95
:10004F00019360BCA3FF543F30E509541FFEE493B6
:10005F00A360010ECF54C025E060A840B8E493A37D
:10006F00FAE493A3F8E493A3C8C582C8CAC583CAA8
:10007F00F0A3C8C582C8CAC583CADFE9DEE780BE60
:0100DC000023
:00000001FF
