:03000000020003F8
:0C000300787FE4F6D8FD75810A02004AFF
:060113000108000109FED5
:0400FE007F327E00CF
:10010200D3EF9400EE94004007EF1F70F31E80F0CF
:0101120022CA
:1000BB00E4FD750AFFE5A0F4601C1200FEE5A0F458
:1000CB00601485A00AEDD39464500BE5A0F4600690
:0A00DB000D1200FE80EFAF0A7E0058
:0100E50022F8
:10008F00EF2405601824FE601014701FE50964FE4C
:10009F006019E509F4C313800F6308FF22E50964B3
:0C00AF007F6008E509F425E0F4F5092263
:1000E6001200BB12008F8509801200FEE50860F041
:0800F6007580FF1200FE80E896
:10000F000200E6E493A3F8E493A34003F68001F221
:10001F0008DFF48029E493A3F85407240CC8C333F2
:10002F00C4540F4420C8834004F456800146F6DFC1
:10003F00E4800B0102040810204080900113E47E3D
:10004F00019360BCA3FF543F30E509541FFEE493B6
:10005F00A360010ECF54C025E060A840B8E493A37D
:10006F00FAE493A3F8E493A3C8C582C8CAC583CAA8
:10007F00F0A3C8C582C8CAC583CADFE9DEE780BE60
:0101190000E5
:00000001FF
