:030000000200BC3F
:0C00BC00787FE4F6D8FD75811C0201037A
:10019D000A083F065B4F666D7D077F6F0212FEFDFD
:0601AD000418000500002B
:1001B400EFD3940040097517E8D517FD1F80F1228D
:1000060020A104B2A0800720A213B2A0B2A7A2A08A
:10001600E433F514A2A7E433F5150200B120A3409A
:10002600C3E51B9407E51A6480948050047403802A
:1000360066D3E51B9406E51A64809480406DE51945
:1000460064094518600C0519E5197002051874F95C
:100056008020751A00751B09751800751909804BE3
:1000660020A448D3E51B9404E51A64809480400AD2
:1000760074FB251BF51B74FF8022C3E51B9405E565
:100086001A648094805024E51945186015E5191501
:1000960019700215187405251BF51BE4351AF51A97
:1000A6008009E4F51AF51BF518F519E51975F00A36
:0600B600A4251BF51C222D
:10017D007F011201B475A0FF7464851CF08414FF17
:10018D001201B4E51424FF92A0E51524FF92A722D5
:10014800D28875A88175A0FFE4F51674122516F8F3
:10015800E6F590E51625E02418F808E62408F8E600
:10016800F5807F011201B40516E516C3940240DB41
:0501780012017D80D39F
:030003000201C433
:1001C400C0E0C0F0C0D0120006D0D0D0F0D0E032F1
:1000C800020148E493A3F8E493A34003F68001F205
:1000D80008DFF48029E493A3F85407240CC8C33339
:1000E800C4540F4420C8834004F456800146F6DF08
:1000F800E4800B010204081020408090019DE47EFA
:10010800019360BCA3FF543F30E509541FFEE493FC
:10011800A360010ECF54C025E060A840B8E493A3C3
:10012800FAE493A3F8E493A3C8C582C8CAC583CAEE
:10013800F0A3C8C582C8CAC583CADFE9DEE780BEA6
:0101B300004B
:00000001FF
