:0300000002000EED
:0C000E00787FE4F6D8FD758108020055EB
:0300C5000108002F
:1000B100D2A075A89FD288758802758C0B758ADCD1
:0400C100D28C80FE5F
:03000300020006F2
:05000600C28CC2A03213
:03000B0002009A56
:10009A00C0E0C0D00508E508C39410400575080003
:0700AA00B2A0D0D0D0E0327B
:10001A000200B1E493A3F8E493A34003F68001F24B
:10002A0008DFF48029E493A3F85407240CC8C333E7
:10003A00C4540F4420C8834004F456800146F6DFB6
:10004A00E4800B01020408102040809000C5E47E81
:10005A00019360BCA3FF543F30E509541FFEE493AB
:10006A00A360010ECF54C025E060A840B8E493A372
:10007A00FAE493A3F8E493A3C8C582C8CAC583CA9D
:10008A00F0A3C8C582C8CAC583CADFE9DEE780BE55
:0100C8000037
:00000001FF
